:020000040000fa
:080000000001040000000000f3
:020000040000fa
:0400080002020000f0
:020000040000fa
:04000c0002020000ec
:020000040000fa
:0400100002020000e8
:020000040000fa
:0400140002020000e4
:020000040000fa
:0400180002020000e0
:020000040000fa
:04001c0002020000dc
:020000040000fa
:0400200002020000d8
:020000040000fa
:0400240002020000d4
:020000040000fa
:0400280002020000d0
:020000040000fa
:04002c0002020000cc
:020000040000fa
:0400300002020000c8
:020000040000fa
:0400340002020000c4
:020000040000fa
:0400380002020000c0
:020000040000fa
:04003c0002020000bc
:020000040000fa
:0400400002020000b8
:020000040000fa
:0400440002020000b4
:020000040000fa
:0400480002020000b0
:020000040000fa
:04004c0002020000ac
:020000040000fa
:0400500002020000a8
:020000040000fa
:0400540002020000a4
:020000040000fa
:0400580002020000a0
:020000040000fa
:04005c00020200009c
:020000040000fa
:040060000202000098
:020000040000fa
:040064000202000094
:020000040000fa
:040068000202000090
:020000040000fa
:04006c00020200008c
:020000040000fa
:040070000202000088
:020000040000fa
:040074000202000084
:020000040000fa
:040078000202000080
:020000040000fa
:04007c00020200007c
:020000040000fa
:040080000202000078
:020000040000fa
:040084000202000074
:020000040000fa
:040088000202000070
:020000040000fa
:04008c00020200006c
:020000040000fa
:040090000202000068
:020000040000fa
:040094000202000064
:020000040000fa
:040098000202000060
:020000040000fa
:04009c00020200005c
:020000040000fa
:0400a0000202000058
:020000040000fa
:0400a4000202000054
:020000040000fa
:0400a8000202000050
:020000040000fa
:0400ac00020200004c
:020000040000fa
:0400b0000202000048
:020000040000fa
:0400b4000202000044
:020000040000fa
:0400b8000202000040
:020000040000fa
:0400bc00020200003c
:020000040000fa
:0400c0000202000038
:020000040000fa
:0400c400c80100006f
:020000040000fa
:0400c8000202000030
:020000040000fa
:0400cc00020200002c
:020000040000fa
:0400d0000202000028
:020000040000fa
:0400d4000202000024
:020000040000fa
:0400d8000202000020
:020000040000fa
:0401080002020000ef
:020000040000fa
:04010c0002020000eb
:020000040000fa
:0401100002020000e7
:020000040000fa
:0401140002020000e3
:020000040000fa
:0401180002020000df
:020000040000fa
:04011c0002020000db
:020000040000fa
:0401200002020000d7
:020000040000fa
:0401240002020000d3
:020000040000fa
:0401280002020000cf
:020000040000fa
:04012c0002020000cb
:020000040000fa
:0401300002020000c7
:020000040000fa
:0401340002020000c3
:020000040000fa
:0401380002020000bf
:020000040000fa
:04013c0002020000bb
:020000040000fa
:0401400002020000b7
:020000040000fa
:0401440002020000b3
:020000040000fa
:0401480002020000af
:020000040000fa
:04014c0002020000ab
:020000040000fa
:0401500002020000a7
:020000040000fa
:0401540002020000a3
:020000040000fa
:04015800020200009f
:020000040000fa
:04015c00020200009b
:020000040000fa
:040160000202000097
:020000040000fa
:040164000202000093
:020000040000fa
:04016800020200008f
:020000040000fa
:04016c00020200008b
:020000040000fa
:040170000202000087
:020000040000fa
:040174000202000083
:020000040000fa
:04017800020200007f
:020000040000fa
:04017c00020200007b
:020000040000fa
:040180000202000077
:020000040000fa
:040184000202000073
:020000040000fa
:04018800020200006f
:020000040000fa
:04018c00020200006b
:020000040000fa
:040190000202000067
:020000040000fa
:040194000202000063
:020000040000fa
:04019800020200005f
:020000040000fa
:04019c00020200005b
:020000040000fa
:0401a0000202000057
:020000040000fa
:0401a4000202000053
:020000040000fa
:0401a800020200004f
:020000040000fa
:0401ac00020200004b
:020000040000fa
:0401b0000202000047
:020000040000fa
:0401b4000202000043
:020000040000fa
:0401b800020200003f
:020000040000fa
:0401bc00020200003b
:020000040000fa
:0401c0000202000037
:020000040000fa
:0401c400c80100006e
:020000040000fa
:0401c800020200002f
:020000040000fa
:0401cc00020200002b
:020000040000fa
:0401d0000202000027
:020000040000fa
:0401d4000202000023
:020000040000fa
:0401d800020200001f
:020000040000fa
:100200006f8120000eff20000e018800000000001a
:10021000000020000000e000020032000001200089
:100220002002880014000700780007000000e000aa
:1002300003003a0040c62000010020000200370001
:100240000000200001002000810f7000010032003a
:1002500014000700000020000000e000020032004f
:100260000000020000000000de0b020000000000a1
:100270000040da000000fe004440a9000000200019
:100280000000e0000300320000002000a001880010
:100290004440a800000006008a1f78008b1f7800e9
:1002a0000000060091018800800478000000eb0047
:1002b0001a003700e284440032a0b4009905ba0065
:1002c000e284440032a0b4009906ba00e2844400fb
:1002d00032a0b4000006eb00476fde00fd07b2005d
:1002e000636ce10003003a00ebff07000000eb0045
:1002f0000a003700606ce10004003a00005deb008a
:100300008b05e900fdff3e00040037006168e10055
:10031000010032000086eb000b00070019c7ba008d
:100320001905ba000e04e00003003a000a00e000dc
:10033000e0ff3a0000000600fe07b2009e018800c0
:100340008a047800f5ff3700395dba008b05e900b3
:100350000c003200295dba008b05e900080032006c
:100360000c00e00003003a00e284440032a0b40034
:10037000f5ff370019ddba008b05e900faff3a00f6
:100380008904e800e184440032a0b40000000600c3
:10039000801f78003400f80000002000a0018800d1
:1003a0000000fa00104080000000e90010408800c2
:1003b000204080000000e9002040880010408000bc
:1003c0000000e00003003a0000c8a800400120003f
:1003d0001040880088e0a900204080000000e00074
:1003e00003003a0000a8a80000fa2000204088007e
:1003f00088e0a9000080fa003400f9004f0078007e
:10040000004006000040da000000fe000000050089
:1004100003f0a200889fbe008a9fbe008c1f780058
:10042000050107000c0133006450e1004f00320069
:100430006420e1005200320003826c0007003b00a0
:100440000905d0000306d000820f54000c065d00a1
:1004500002003900020032008901780003067800aa
:100460008582550004003d000003fd008103fd006e
:100470008502ea008b854200840f720002003b0077
:1004800060001000e08018006011b8000005eb006b
:100490007a28e1000a00390006007800c75ddd0017
:1004a000f707b200878075002d0037008281710048
:1004b0000a017800610560008180d1000080d300ce
:1004c0008502e900f9ff3b000604400087844800ec
:1004d00002003b0060041400e0841c000988a300b3
:1004e000070032008a81710082817100610164001d
:1004f0008904d1000884d3008b05e8001700370079
:100500000978a30013003a000b00e0001300340048
:100510008b05e9000804440089844c000a447400f7
:100520000978a3000d003a000b00e000070034003a
:100530008b05e9000804440089844c0001003a005e
:100540000b0020000978a300f7ff32000001eb0048
:1005500002003700828171000a0178007b000700e9
:100560000cf0a70001f0a000c40037006420e100f7
:1005700002003a00838f6c00c40033000801be0003
:100580000200be00bd003700889fbe008a9fbe00eb
:100590008c1f7800a8000700af00330003866c00b2
:1005a0006450e1002e0032006420e100330032008c
:1005b0006150e1002f0032006120e1003100320083
:1005c00085855500eb07b0000900200008042000d5
:1005d000050037000804440089844c000a003100fb
:1005e0000603430087834b000001530081815b00b9
:1005f000f8ff33000203be000800a0000804440016
:1006000089844c00f6ff3900c639dd008301730090
:1006100001003200130020008904d1000884d300b7
:100620000998a300050032000800a7000300a000fd
:100630008904d1000884d3008b05e8008904d10027
:100640000884d3000001eb000281d2003f000700c4
:1006500001f0a1000cf0a70001f0a0008700370016
:100660006420e100890032000801be000200be00e3
:10067000f7ff37006120e100840032006000b8001d
:10068000f3ff37000000200001f82700f0ff3700db
:10069000839f68000100e00002003d006000100040
:1006a000e08018000300e00002003d00600111003e
:1006b000e0811900ac0007004f00e00002003b00a1
:1006c00060001000e0801800000006000001be007d
:1006d000440007000470a70003f0a10003f8a30082
:1006e00013003a006509b10010003200090035001e
:1006f0006928e10002003500010028000000050023
:1007000000004000818048008502e900fcff3a00bb
:1007100000000600f88f4200050035008100d1007e
:100720000080d3008502e800fcff3a0000000600cc
:100730008000eb00000005004f89de008201780098
:10074000990037006011b800a70037008100200031
:10075000618055000b003d000b00200061fe2f0062
:100760000100e1001d00340082817100610164001c
:100770008904d1000884d3000000e800faff3a00a1
:10078000710020006100640003007000020060003e
:100790000900320061044400e0844c000988a5008f
:1007a000050032008b05e8006808e10002003a000d
:1007b0008904d1000884d300f20f20000258e10020
:1007c00005003d00c75ddd00f907b20089807500b6
:1007d00008007800000006000bf827008b00780066
:1007e00000000500c70ade00f107b200f50fb200f5
:1007f00008003200e1cf4200020032000170a00088
:1008000024000500810f700001003200040805007b
:1008100044000500810f700002003a00140005003a
:100820008502e9000000400081c04800fcff3b0059
:100830000170a000240005000004be00e9ff0700cd
:100840000003be000405be000200be00e5ff070075
:10085000844f7500000006000200be006450e100f5
:10086000050036006420e100020036000968a3009c
:1008700001003a000800be000160a0004f067800a9
:100880004f05be004f04be0000000600f0ff2f0021
:10089000f1ff2700f9ff3700889fbe008a9fbe0046
:1008a0008c1f7800e4ff0700ebff330003866c0029
:1008b0006450e100240032006420e100270032008f
:1008c0006150e100220032006120e100210032008d
:1008d0008b854200eb07b1000134b800003ab80044
:1008e0000804420089844a00013ab8000030b80088
:1008f0008880400009014a000400330000004000e5
:1009000081804800020149008b05e900c909dd002a
:10091000830170000100320013002000c814de00c3
:100920004814dd004709de001200b200c808de00ee
:100930000884700085ff070001f0a1000cf0a700fb
:1009400001f0a000cdff37006120e100cfff3200b1
:100950000801be000200be00f7ff37006150e10051
:10096000fcff3a00c9ff37006022b80006022000f1
:100970000000d0008180d2000482d2008582d200a3
:100980000000a0000202520083825a0003003100de
:100990000202420083824a000000a1000603e9002f
:1009a000f3ff3a0000000600881f78000304780077
:1009b0000300e00007003d0060001000e080180028
:1009c00060011900e081190002003b0001f02d00d8
:1009d000030037000400070008f0a70001f0a000a2
:1009e0004f04780000000600889fbe008a9fbe006a
:1009f000008270000402710004827100260032003f
:100a00000004be000200be006011b8006b092000a7
:100a1000950220000182cf000a0039000541b10093
:100a20000082cf00070039000541b1000982cf00e4
:100a3000040039000541b1000882cf0001003900ef
:100a40000541b10005425200120032000a003b008d
:100a500082817100610164008100d1000080d300b7
:100a60008984d3000884d3008b05e8000442e800a1
:100a7000f7ff3a00070037000804440089844c005f
:100a800000004800818048008b05e9000442e9002d
:100a9000f9ff3a002dff07004f05be004f04be00ce
:040aa000000006004c
:020000040000fa
:100aa4000200fa00000f78009e0078006880600061
:100ab4004380de0000407800614060000080fb005d
:100ac400610060004500dd00e11680000150a100d6
:100ad40001007000e01688009e00780064806000c9
:100ae4004280de0000407800614060000080fb002e
:100af400610060004400dd00e11680000140a100b7
:100b040001007000e01688009e007800628060009a
:100b14000080d10000407800614060000080fb004c
:100b2400610060004300dd00e11680000130a10097
:100b340001007000e01688001e0078000040780074
:100b44006140600061406000614060000080fb0023
:100b5400610060004300dd00b11680000130a10097
:100b640001007000b01688000080fa000000060042
:100b74000000fa00a040800090408800cac2a9008a
:100b8400a140800000ff2f0000806000a04088008a
:100b9400a0408000c2ff0700d262a900d862a90069
:100ba400d882a900d8a2a900c6c2a900de82a900e1
:100bb400a140800000ff2f0000806000a04088005a
:100bc400a04080003000b300a0408800a040800016
:100bd400b3ff070084000700a1020700a1408000c2
:100be40000ff2f0000806000a0408800a04080002b
:100bf4003000b300a0408800a0408000a8ff070098
:100c04007900070096020700a140800000ff2f0032
:100c140000806000a0408800a04080003000b30045
:100c2400a0408800a04080009dff07006e000700e0
:100c34008b020700a140800000ff2f0000806000ad
:100c4400a0408800a04080000010a000a0408800c0
:100c5400a040800092ff07006300070080020700a5
:100c640080c2b3000e00070089020700c0c0b300b1
:100c74000b0007008602070060c0b30008000700ed
:100c84008302070010c0b3000500070074020700c8
:100c940090408000a04088000080fa000000060018
:100ca4000200fa00004f7800a040800090408800c5
:100cb4001e80fb004400de000040780010e8b7000e
:100cc400a04080008000780000ff2f00808060003a
:100cd40010c8bf000080fb0001007000a040880025
:100ce400a04080006eff07003f0007009e40780090
:100cf4006fc0600010e8b700a0408000800078005a
:100d040000ff2f008080600010c8bf000080fb003f
:100d140001007000a0408800a040800060ff070030
:100d24003100070090408000a0408800580207006e
:100d34000080fa00000006000200fa00004f78006c
:100d4400a0408000904088001e80fb004400de002c
:100d54000040780010e8b700a040800080007800d0
:100d640000ff2f008080600010c8bf000080fb00df
:100d740001007000a0408800a040800048ff0700e8
:100d8400250007009e4078006fc0600010e8b7009f
:100d9400a04080008000780000ff2f008080600069
:100da40010c8bf000080fb0001007000a040880054
:100db400a04080003aff0700170007009040800021
:100dc400a0408800320207000080fa0000000600fc
:100dd4000200fa00004f78001e407800d6ff07009a
:100de4000080fa00000006000000fa00e282a90078
:100df4000000000000000000cac2a80000000000bb
:100e0400000000000000000000000000cac2a900a9
:100e14000080fa00000006000000fa00e282a80048
:100e24000000000000000000cac2a800000000008a
:100e3400000000000000000000000000cac2a90079
:100e44000080fa00000006000200fa00004f78005b
:100e5400114798001e4090000080fb000080e800cd
:100e640080407800600020000008dd001e40400043
:100e74008bff0700060207000080fa00000006004e
:100e84000200fa00000f78001e007800104078007d
:100e940011e8b70011c8bf000004e00004003200ec
:100ea40011c8bf00a4ff07001e0fe800f6ff3700bb
:100eb4000080fa00000006000200fa00000f78002b
:100ec4001e0078001040780011e8b70011c8bf0078
:100ed4000004e0000400320011c8bf0096ff0700c0
:100ee4001e0fe800f6ff37000080fa00000006003d
:100ef4000400fa00204798002e4090000080fb0078
:100f04004400de00004f78001e407800e94f500096
:100f14000300360071c3b3001ecf40000200370047
:100f240001c3b3001ecf40001e40780082ff0700bb
:100f34002e4090006f4f60001e407800e94f500033
:100f44000300360071c3b3001ecf40000200370017
:100f540001c3b3001ecf40001e40780076ff070097
:100f64000080fa00000006000400fa002047980000
:100f74002e4090008080fb00d0cc2c000008b800ec
:100f84004308de00004f780001c3b3001ec04000d8
:100f94008fff07009e407800600f20000088b90092
:100fa40000007800804078002e40900000c040008f
:100fb400104798001e4090000043b00084ff0700d3
:100fc4000080fa00000006000600fa00404798007e
:100fd4004e4090000080fb00c200de00b0472100bc
:100fe4000008b8000100d100004f780001c3b3002d
:100ff4001ec0400076ff07004e4090000081fb00b9
:101004009e80fb00c0f92f000088b9000000780022
:1010140000014100706626000090b900c288de001d
:101024004f90de0000805000104798001e40900052
:101034000043b00066ff07009e409000600f200050
:101044000088b90000007800004178009e407800d4
:10105400c00920000088b900000078000040780032
:10106400804041004e40900000c04000204798005e
:101074002e4090000043b00055ff07000080fa00a6
:10108400000006000600fa00404798004e40900019
:101094008080fb00803e20000001780011000900e0
:1010a4008200d800004f780001c3b3001ec0400086
:1010b40047ff07004e4090000081fb009e80fb002c
:1010c40080c12f000088b9000000780000014100b1
:1010d400b04721000090b900c388de004f90de00c5
:1010e40000805000104798001e4090000043b0005c
:1010f40037ff07004e4090000081fb001e40900027
:101104008080fb00c0f92f000088b90080017800be
:101114009e80fb0080c12f000088b9000000780089
:101124000080410000014100706626000090b90073
:10113400c288de004f90de000080500020479800f7
:101144002e4090000043b00021ff0700ae40900005
:10115400600f20000088b90000007800004178008a
:101164009e409000c00920000088b900000078006b
:10117400804178001e4078007800b90000007800b3
:101184000040780000c04100804041004e40900083
:1011940000c04000304798003e4090000043b0003b
:1011a4000bff07000080fa00000006000800fa00a8
:1011b400604798006e4090000081fb0070a32100fe
:1011c4000090b900ca88de004f90de000080500015
:1011d400004f780001c3b3001ec04000fcfe0700ae
:1011e4006e4090000081fb009e80fb00008f2d006c
:1011f4000088b9000000780080004100803e200093
:1012040000017800110009008200d80010479800fe
:101214001e4090000043b000edfe07006e409000b9
:101224000081fb001e4090008080fb0080c12f00e5
:101234000088b900800178009e80fb00008f2d009b
:101244000088b900000078000080410000014100de
:10125400b04721000090b900c388de004f90de0043
:1012640000805000204798002e4090000043b000ba
:10127400d7fe07006e4090000081fb002e409000d6
:101284008080fb00c0f92f000088b900800178003d
:101294001e4090008080fb0080c12f000088b900b0
:1012a400000278009e80fb00008f2d000088b900aa
:1012b400000078000000420000804100000141006d
:1012c400706626000090b900c288de004f90de00f0
:1012d40000805000304798003e4090000043b0002a
:1012e400bbfe0700ae409000c00920000088b90092
:1012f4000000780000417800be409000600f20009c
:101304000088b900000078000040780000414100e6
:101314001e4090007800b9000000780080417800f9
:101324009e407800000f20000088b900000078007b
:101334000040780000c04100804041006e409000b1
:1013440000c04000404798004e4090000043b00069
:101354009ffe07000080fa00000006000800fa0063
:10136400604798006e4090000080fb008000eb0016
:10137400026a280013002000c4fc0700004f780014
:1013840001c3b3001ec0400091fe07006e409000f0
:101394000082fb008002eb001e80fb008000eb005b
:1013a400029627000289b90002017800e3ff2f00aa
:1013b4000383b900860178000301410003962700e6
:1013c4000300b800010141008200780004004000dd
:1013d400858048000271220003002000abfc070056
:1013e400104798001e4090000043b00078fe0700ac
:1013f4006e4090000082fb008002eb001e80fb0028
:101404008000eb00029627000289b90002017800ef
:10141400e3ff2f000383b900860178000301410034
:10142400039627000300b800010141008200780000
:101434001e4190008281fb00027122000299b900d2
:1014440002017800cf91de00020050008380580032
:101454000400400085804800823e200003002000f4
:101464008afc0700204798002e4090000043b000fb
:1014740057fe07006e4090000082fb008002eb00e4
:101484001e80fb008000eb00029627000289b90051
:1014940002017800e3ff2f000383b900860178007e
:1014a40003014100039627000300b8000101410035
:1014b400820078001e4190008281fb0002712200ac
:1014c4000299b90002017800cf91de0002015000b8
:1014d400838158002e4090008080fb00803e2000d5
:1014e4000088b90000007800cf80de0000005100c1
:1014f4008180590004004000858048004206200095
:101504000300200061fc0700304798003e40900033
:101514000043b0002efe07006e4090000082fb00e6
:101524008002eb001e80fb008000eb000296270087
:101534000289b90002017800e3ff2f000383b90098
:101544008601780003014100039627000300b800d8
:1015540001014100820078001e4190008281fb005d
:10156400027122000299b90002017800cf91de00d5
:1015740002015000838158002e4090008080fb00bf
:10158400803e20000088b90000007800cf80de0093
:1015940000015100818159003e4090008080fb0091
:1015a400400620000088b90000007800cf80de00eb
:1015b40000005100818059000400400085804800eb
:1015c400a20020000300200030fc070040479800e0
:1015d4004e4090000043b000fdfd07001e4078001f
:1015e4006600b90000007800804078001e4090003a
:1015f40080c05000400020000009dd00ae40900093
:10160400800e20000088b9000000780000407800b7
:1016140000415100be409000400620000088b900ff
:101624000000780000407800004151004e409000d6
:101634006a00b90000007800004078008040510042
:101644006e40900000c04000504798005e409000fb
:101654000043b000defd07000080fa000000060031
:101664000200fa000000eb00000f780002003700cf
:10167400070007001e0fe800300620009e007800d7
:10168400808f5000faff34000080fa00000006004a
:101694000400fa000000eb00000f7800040037009b
:1016a4001e0090000000e800100798001e0fe800dc
:1016b400700c20009e007800808f5000f8ff3400ea
:1016c4000080fa00000006000000fa0041158000c6
:1016d400800320000100700040158800110980007b
:1016e400f08f2f00008060001009880023e1a9001a
:1016f40023a1a80022e1a90022c1a8002241a80038
:101704002501a80024e1a80021098000f0f82f0099
:10171400008060000040a0002009880022a1a900e8
:101724002221a9002621ef009100a80011098000c0
:10173400f08f2f00808060000060200001007000a6
:1017440010098800e0ff2f00400988000080fa009b
:10175400000006000000fa00010e8000f0f02f00e7
:1017640000806000000e8800010e800030ff2f0012
:1017740000806000000e8800010e8000c0ff2f0072
:1017840000806000000e8800f0182000200e880001
:10179400c901a800c881a800c821a900d621ef006a
:1017a400d821ef00c1e1a80088e0a90090e0a800da
:1017b4000080fa00000006000000fa00ecfc0700bc
:1017c400e4ff0700c0ff0700d621ef00f0fb2f0065
:1017d40030168800400620001040880000fa2000df
:1017e4002040880001003700000000000140800014
:1017f40000022000008060000000e0000a003200c7
:10180400200e80008000eb00cdfb0700d2cc2c0022
:10181400c3e423001ffc0700abfb070000007800b3
:10182400b00e880000a8a900014080000004200038
:10183400008060000000e000ebff3200300980000f
:101844008000eb00604088007140880060408000a8
:101854007140800000007800017721000080500072
:101864004040880040408000504088005040800044
:10187400cf80de00affb07003233230033012400a6
:1018840004fc0700a2992900131b24003dfb070058
:101894006011b800defa07008bfb07000000780037
:1018a400b00e88008040eb000040eb0066fd0700ae
:1018b400b00e800000407800c3fd070000c8a900f6
:0418c400caff370020
:020000040000fa
:1018c80000080000100000000000000010080000e0
:0c18d800060000000000000000000000fe
:020000040000fa
:0200000401f009
:040000000383000076
:020000040000fa
:0200000401f009
:040004003f000000b9
:020000040000fa
:0200000401f009
:04000800b30700003a
:00000001FF
